:400000000080002011000000450500004505000008B5044B1A6803F53F5302331A6000F0B1FA00BFFA46004010B5054C237833B9044B13B10448AFF300800123237010BD38
:400040005081FF1F00000000381D0000084B10B51BB108490848AFF300800848036803B910BD074B002BFBD0BDE81040184700BF000000005481FF1F381D0000C880FF1F48
:400080000000000010B404460020034605E034F81320904200DA104601338B42F7DB10BC704700BF10B4002306E030F81340A24201DD04B1224601338B42F6DB90B210BC67
:4000C000704700BF70B415460026334605E030F813400CB12544013601338B42F7DBAD1A95FBF6F080B270BC704700BF30B58DB062B600F0E1FF00F041FF01F089F900F02E
:40010000E3FC00F04FFF384800F0F0FF00242DE0E0B201F08DF9012000F04CFF10B300F061FF00F087FF83B20CAA02EB440222F82C3C632B0ED800220CAB03EB440323F8E7
:400140002C2C2246294904A801F0D2F904A800F0CDFF07E02246264904A801F0C9F904A800F0C4FF642001F007F90134052CCFDD062101A8FFF786FF05461E4C2080024692
:40018000062101A8FFF78EFF60802A46062101A8FFF798FFA0802A46174904A801F0A8F904A800F0A3FF642001F0E6F86288134904A801F09DF904A800F098FF642001F05F
:4001C000DBF8A2880E4904A801F092F904A800F08DFF642001F0D0F800F0C8FC4FF47A7001F0CAF892E700BF3C1D00004C1D00005C1D00008881FF1F6C1D00007C1D0000CE
:400200008C1D0000FEE700BFF0B40022174611E050F82760F3B226F0FF0608E001EB420511F812406D78A5550132013BDBB2002BF4D10137112FEBD9F0BC7047064B1B780A
:40024000DBB203F00701054A11701B09013213704422034B1A707047CF0100496E5800407658004008B50A46002101F038F908BD08B501F029F908BD38B500242E4B1C805A
:40028000502202331A70192502331D80182202331A70042229492A48FFF7EAFF0222294B1A7008224FF040231A70032103F500731970254B1B78DBB224490B70244B1A800A
:4002C00041F25122023B1A800CE0224B1B7803F0010343EA440404F003044FF4F07001F0B7F8013D0DB1032CEFD115B90320FFF789FF194B4FF480721A8007221A70002289
:4003000016490A704820023108701A700222033B1A7004220A331A70114A137843F003031370013A137843F001031370013A137843F08003137038BD804000407803004895
:40034000004100400043004008010049A146004022420040254200400440004006400040A2430040052816D810B44000C0B20A4B53F820101A1892F830400A7822430A7098
:400380000130C0B253F82020184490F8301013780B43137010BC70479C1D0000052818D810B44000C0B20B4B53F820101A1892F830400A7822EA04020A700130C0B253F8C7
:4003C0002020184490F83010137823EA0103137010BC70479C1D0000012809D8054B03EB8002D26B184490F8441013780B431370704700BF9C1D000001280AD8054B03EB2B
:400400008002D26B184490F84410137823EA0103137070479C1D000038B572B6374A137843F00403137000240CE0354863001A19510001440A46B1F84C10906CFFF712FF47
:400440000134E4B2062CF0D900240BE02C49A3001819420088180622816F406FFFF708FF0134E4B2002CF1D026494FF09040FFF7CBFE0A25244B1D70244A137843F0020367
:4004800013701032137843F002031370204C237843F040032370A2F58632513A137843F01003137008221B491B48FFF7E1FE2A461A491B48FFF7DCFE08221A491A48FFF742
:4004C000D7FE082219491A48FFF7D2FE194A137843F008031370184D61232B70FFF7CCFE81232B700122154B1A70FFF7A7FE0E2221461348FFF7BCFE38BD00BFE8460040D5
:400500009C1D0000480000488358004003500140A043004054030048025100405C030048C05100406803004812510040700300482251004022430040004800400400084039
:40054000B043004008B500F093FF03680C2B00D1FEE7FEE708B5094B1A681044084BC31A802B02DC054B186005E000F081FF0C2303604FF0FF32104608BD00BFCC80FF1FC9
:400580009881FF1F08B5104E104D16E029686B68AC68002204E051F8040B43F8040B0432A242F8D1E868002203E0002143F8041B04328242F9D11035013E002EE6D100F0A6
:4005C0005DFFFFF793FDFEE701000000D81F000008B5104A104B1A60104A136843F40073136000230AE0032B03D80D4A52F8231000E00C490C4A42F8231001332F2BF2D923
:400600000A4B1A780A4B1A70074A0A4B1A60FFF703FF08BD0004FA050CED00E014ED00E000000000450500000080FF1FBC760040C080FF1F08ED00E008B5134A136823F025
:40064000010313604FF4F05300E0013B23B10E4A126812F0010FF8D19BB14FF480320B4B1A6000F0FDFE0A4A137803F0FE0313701032137803F0FE03137000F0F5FE002047
:4006800008BD012008BD00BF10A0004080E100E0A6430040064B1A7842F001021A701B7813F0010F01D1012070470020704700BF04A0004008B500F0D3FE154A137843F06F
:4006C000010313701032137843F00103137000F0CBFE41F201220F4B1A60FFF7DBFF4FF480320D4B1A600D4A136843F0010313604FF4107300E0013B23B1084A126812F072
:40070000010FF8D00BB9012008BD002008BD00BFA643004000A0004000E100E010A00040064B1A7802F0FE021A701B7813F0010F01D0012070470020704700BF04A00040B1
:4007400010F4004F07D1064B18801B889BB2984203D001207047022070470020704700BF16A0004050B90D4B5A7802F0EF025A705B7813F0100F0CD001207047074B5A78DE
:4007800042F010025A705B7813F0100F03D101207047002070470020704700BF14A0004030B4841EE4B20D2C28D88C1EE4B2052C02D92BBB012925D1032A25D8904225D38E
:4007C000914225D3164D6C7804F0F004204368706C78E4B2A0421DD10BB9002000E002204B01DBB29200D2B2134303430C4A13701278D2B293420FD001200EE002200CE051
:4008000002200AE0022008E0022006E0022004E0022002E0012000E0002030BC704700BF14A0004050B90D4B1A7802F0EF021A701B7813F0100F0CD001207047074B1A786C
:4008400042F010021A701B7813F0100F03D101207047002070470020704700BF14A0004050B90D4B1A7802F0FE021A701B7813F0010F0CD001207047074B1A7842F0010206
:400880001A701B7813F0010F03D101207047002070470020704700BF14A00040044B18801B889BB2984201D0012070470020704704A0004003785B01214A416841F0801139
:4008C000995003785B0199189A5802F07F12436823F080139A4228D183680B610278184B03EB421319698268914220D1C2685A610278134B03EB42135969C268914218D19D
:400900004FF0FF329A6102780D4B03EB42139A69B2F1FF3F0FD10022DA610278084B03EB4213DB694BB101207047012070470120704701207047012070470020704700BFF8
:40094000A0A0004001780901114A436843F4000343F008038B5003781B0199189B580D4A1A40436823F4000323F008039A420BD183684B600278064B03EB02135A68836883
:400980009A4203D001207047012070470020704720A00040F7007F0038B5002409E004EB440293000E481844FFF7CCFF28B90134E4B2072CF3D9002500E001254DB10DE095
:4009C000084800EB0410FFF775FF30B90134E4B200E000240F2CF3D900E00125284638BD1C1E00007C1E000008B500F039FD324A137843F0010313701032137843F001039A
:400A0000137000F031FD2D4A137803F0FE0313704FF4F05300E0013B23B1284A127812F0010FF8D1002B3CD04FF48032244B1A602449102000F0C0FC0721102000F0D0FCDD
:400A40000220FFF77DFE88B9FFF78CFE80B90023032204210920FFF7A3FE58B9FFF7E2FE50B9FFF7FDFE48B1012308E0012306E0012304E0012302E0012300E0002393B94B
:400A8000FFF78AFF88B941F20120FFF707FF70B90A4B00221A701B7813F0010F09D0012008BD012008BD012008BD012008BD012008BD002008BD00BFA643004010A0004042
:400AC00080E100E0490B000008B5074B1B7813B9FFF78AFF00E0002020B90122024B1A70FFF7E8FD08BD00BF6C81FF1F08B50222034B5A70FFF714FEFFF79EFD08BD00BF21
:400B000000A0004038B510220C4B5A700125002410E00B4B1B881D4208D06301094A9B5C13F0200F02D0204600F042F86D00ADB20134E4B20F2CECD938BD00BF00A00040BE
:400B400008A00040A0A0004008B5074B5B7813F0020F01D0FFF7CAFF034B5B7813F0100F01D0FFF7CFFF08BD00A000400E4B1B7813F0010F16D10D490A88D0B20A4BD8721B
:400B8000120A9A724A88D0B25872120A1A728A88D1B2D973120A9A731A6842F001021A60002070470120704720A000408881FF1F4001054BC25C12F0010F03D0C25C42F052
:400BC0000102C254704700BFA0A0004010B59DF80840012C51D1013809282ED8DFE800F0052D2D052D2D0F192D230F2B03D92548007840B222E02448007840B21EE00F2B9B
:400C000003D92248007840B218E02148007840B214E00F2B03D91F48007840B20EE01E48007840B20AE00F2B03D91C48007840B204E01B48007840B200E0002001EB4011E4
:400C400001FB02F1C90B8AB20D2B0BD8C3F10E0289B211418AB2611E124800EB810101338B7005E0631E0F4901EB83030F219970013C0C4B23F8242010BD002000F07AFBAA
:400C800010BD00BF180100491C010049190100491D0100491A0100491E0100491B0100491F0100497081FF1FF8B5074600F0D8FB06460D4D2B7843F003032B700B4C2378A1
:400CC00043F0030323700A4B1F70032000F06AFB2B7803F0FC032B70237803F0FC032370304600F0C1FBF8BDF8460040F9460040925800400022314B1A7101285CD170B5DA
:400D000038222F4B1A7004232E4A1370062101321170002401321470013214700F210132117002321470013214700132147001250A321570142102F52762117001321370E9
:400D40001822214B1A7001331C7011231F4A137012210132117001321470023215700132137019221A4B1A70972201331A704420FFF79AFF5822174B1A7001331C70052671
:400D800005331E70022201331A7001331C7001331C70204600F0CCF92A220F4B1A602946304600F0E9F92946952000F069FA0B491D2000F001FB70BD704700BF7081FF1F73
:400DC000004E0040024E0040865800408A58004090580040945800409081FF1F59100000F0B583B0284D01272F70284E00247471102000F0AFF9102000F030FA07211D209F
:400E000000F0EEFA0422224B1A7001331C7007331C70204A137843F0180313701E4B1C7003F2F5231C7001331C700A22A3F209331A7001331C7002331C70122205331A7025
:400E4000132201331A7004331C701422A3F68C231A70009708234FF4004211460320FFF7B5FE2B78013B06EB83039A780B4B1A702B78013B36F82320094B1A802878FFF72E
:400E800039FF03B0F0BD00BFD080FF1F7081FF1F96580040075B0040935800400E4E00400C4E004070B500F0DBFA06462A4B1B782A4B1A7842F001021A701A7842F0100253
:400EC0001A7010331A7842F001021A701A7842F010021A70224D2B7843F002032B70214C237843F0020323701F4A137843F003031370032000F056FA2B7803F0FD032B7078
:400F0000237803F0FD032370184A137843F0060313707A22164B1A70164A137843F0010313701032137843F0010313700F3A137843F0010313701032137843F0010313701C
:400F40004FF000530C4A1360A2F5C0721360304600F08AFA70BD00BFD080FF1FAA430040F8460040F9460040915800407758004082580040A143004080E200E008B5084BA4
:400F80009B794BB9064BDB7913F0FF0F01D1FFF727FF0122024B9A71FFF784FF08BD00BF7081FF1F024A137843F0010313707047004E0040094B1B7913F0FF0F03D0074BFA
:400FC0005B79DBB203E0064B1B7803F00103012B01D00028EED01846704700BF7081FF1F014E00400E4B1B7803F00303012B03D80C4B188880B209E00A4A12780A490878CE
:4010000042EA0020032B01D1084B1B78084B1B7913F0FF0F02D00022054B5A7100B27047144E0040104E0040114E0040124E00407081FF1F064B9B68C01A4FF47A7303FB24
:4010400000F0044B1B6890FBF3F000B2704700BF7081FF1F9081FF1F704700BF7222074B1A70202201331A700622623B1A70472210331A7000224F331A7070478A6500405B
:4010800010B500F0EDF904460A4A137843F0200313700132137843F010031370033A137843F01003137000F057F9204600F0DCF910BD00BF9A65004008B5054B1B7823B9C9
:4010C000FFF7CCFF0122024B1A70FFF7D9FF08BD7C81FF1F034B1B7813F0040FFAD1024B18707047686500404865004038B5074B1B782BB938BDFFF7EDFF0134A4B201E046
:4011000005460024285D0028F5D138BD7C81FF1F10B5002404E02046FFF76EF90134E4B2012CF8D9FF22014B1A7010BDD180FF1F10B50446FFF7ECFF2046FFF74DF9014B53
:401140001C7010BDD180FF1F014B188880B2704780400040034B1A7800F0F80010431870704700BF82400040024B187800F00700704700BF8240004070B505460E46FFF7B1
:40118000F3FF0446FFF7E0FFA84256D02B4B1B7803F0010294B900B185B938B9284B1D80284A137803F0BF03137070BD254A137843F040031370224B1D8070BD22B300234E
:4011C00021490B7001240F310C7004310B700C390B7803F07F030B701A4B1B7813F0080F00D08DB9194B18800721013B1970164B1B7813F0010FFAD110490B7803F0FE030E
:401200000B700021104B19700C4B1B7813F0010F0DD00E4B1D800EB1032200E001220A4B1A70094B1B7813F0010FFAD170BD044B1D8002490B7813430B7070BDA2430040C9
:4012400080400040824000400140004002400040014B188880B2704700410040034B1A7800F0F80010431870704700BF02410040024B187800F00700704700BF02410040AA
:4012800070B505460E46FFF7F3FF0446FFF7E0FFA84256D02B4B1B7803F0010294B900B185B938B9284B1D80284A137803F0BF03137070BD254A137843F040031370224B55
:4012C0001D8070BD22B3002321490B70012413310C7004390B7008390B7803F07F030B701A4B1B7813F0080F00D08DB9194B18800721013B1970164B1B7813F0010FFAD113
:4013000010490B7803F0FE030B700021104B19700C4B1B7813F0010F0DD00E4B1D800EB1032200E001220A4B1A70094B1B7813F0010FFAD170BD044B1D8002490B781343C5
:401340000B7070BDA143004000410040024100400140004002400040054A137843F0020313701032137843F002031370704700BFA243004001BE704710B5044605E0084B25
:40138000186800F065F8A4F50044B4F5004FF6D8034B586800FB04F000F05AF810BD00BFD480FF1F08B5034B1B7A00FB03F000F04FF808BDD480FF1F70B504460E46074B6F
:4013C0001D681F2802D90020FFF7D4FF04F01F04103455F8240045F8246070BD08ED00E038B504460D46072902D90020FFF7C2FF1F2C02D90020FFF7BDFF04F01F0000F166
:40140000604000F564406D01EDB2057038BD00BF10B5002404E02046FEF7C0FF0134E4B2052CF8D9FF22014B1A7010BDE480FF1F10B50446054B1878FF2801D0FEF7AEFFBA
:401440002046FEF78FFF014B1C7010BDE480FF1F0230800803D000BF01380046FCD17047EFF3108072B6704780F31088704700BF014B1868704700BF4881FF1F0E4B70B594
:401480001E460E4C0025E41AA410A54204D056F8253098470135F8E700F08CFD084B094C1E46E41AA4100025A54204D056F8253098470135F8E770BDC01F0000C01F0000AC
:4014C000C01F0000C81F000010B5431E0A44914204D011F8014B03F8014FF8E710BD03460244934202D003F8011BFAE7704700000EB400B54FF402719CB0ADF814106FF039
:401500000041049107914FF6FF711DAB02900690084853F8042BADF81610006802A9019300F064F8029B00221A701CB05DF804EB03B070474881FF1F2DE9F0478E6882465B
:401540009E420C46914698463ED88A8912F4906F3AD02568096902236F1A656905EB450595FBF3F57B1C43449D4238BF1D4653050FD5294600F040FB064698B13A46216953
:40158000FFF7A2FFA38923F4906343F08003A38113E02A4600F08EFB064670B92169504600F0DEFA0C23CAF80030A3894FF0FF3043F04003A381BDE8F08726613E4426604B
:4015C00046466561ED1BA560464528BF464649463246206800F0A8FAA36800209B1BA36023681E442660BDE8F08700002DE9F04F9DB003938B8980461C060D4616460DD535
:401600000B695BB9402100F0F7FA2860286118B90C23C8F80030CDE040236B610023099320238DF82930DFF89CB130238DF82A3037463C4614F8013B1BB9B7EB060910D021
:4016400003E0252BF9D02746F3E74B46324629464046FFF771FF013000F0A780099B4B4409933B78002B00F0A08000234FF0FF3204930793059206938DF853301A930126EE
:40168000052221784E4800F041FA671C049B38B14B4A3C46801A06FA00F018430490EFE7D90644BF20228DF853201A0744BF2B228DF8532022782A2A03D0079A00210A2006
:4016C0000BE0039A111D12680391002A10DA524243F00200079204900BE027463B780134303B092B03D800FB02320121F5E701B107923B782E2B1ED17B782A2B0AD1039B2E
:4017000002371A1D1B680392002BB8BF4FF0FF33059310E0002319460593781C0A2407463A780130303A092A03D804FB01210123F5E703B1059103223978224800F0E6F988
:4017400040B14023CBEB000003FA00F0049B013718430490397806221B487E1C8DF8281000F0D4F988B1194B33B9039B073323F007030833039314E003AB00932A46144B09
:4017800004A94046AFF3008007E003AB00932A460F4B04A9404600F093F8B0F1FF3F824603D0099B5344099342E7AB895B0601D4099801E04FF0FF301DB0BDE8F08F00BFB0
:4017C0007E1F0000841F0000881F000000000000391500002DE9F04791461F460A698B6806469342B8BF1346C9F8003091F843200C46DDF8208012B10133C9F800302368BD
:40180000990642BFD9F800300233C9F80030256815F0060510D104F1190A07E00123524639463046C04701301AD00135E368D9F800209B1A9D42F1DB94F843302268003303
:4018400018BF012392060FD5E118302081F843005A1C94F845102244023382F8431003E04FF0FF30BDE8F08704F1430239463046C0470130F4D02268D9F80050E36802F0AD
:401880000602042A08BF5D1B2269A3680CBF25EAE57500259342C4BF9B1AED184FF000091A344D4509D00123224639463046C0470130D5D009F10109F3E70020BDE8F08739
:4018C0002DE9F04317460A7E85B06E2A984606460C460C9B01F1430E00F0AE8011D8632A22D009D8002A00F0BB80582A40F0CA8081F84520834955E0642A1ED0692A1CD0F5
:40190000C0E0732A00F0B08009D86F2A2ED0702A40F0B8800A6842F020020A603EE0752A24D0782A3AD0ADE01A6801F14205111D1960136884F84230A8E021681A6811F057
:40194000800F02D0111D196008E011F0400F02F10401196002D0B2F9003000E01368002B3CDA2D225B4284F8432037E021681A6811F0800F02D0111D196007E011F0400F40
:4019800002F10401196001D0138800E01368227E5C496F2A14BF0A2208221BE078225A4984F845202268186812F0800F00F104051D6003D1550601D5038800E00368D0070B
:4019C00044BF42F0200222601BB9226822F0200222601022002084F8430001E049490A226568002DA56008DB206820F0040020602BB9002D7DD175460CE0002B79D0754617
:401A0000B3FBF2F002FB1033CB5C05F8013D03460028F5D1082A0BD12368DA0708D5236962689A42DEBF302305F8013C05F1FF35C5EB0E0323612EE008681A6810F0800F8C
:401A4000496903D0101D1860136808E010F0400F02F104001860136801D0198000E0196000232361754616E01A68111D1960156800216268284600F049F808B1401B606081
:401A8000636804E004F1420584F8422001232361002384F84330CDF800803B4603AA21463046FFF797FE013002D14FF0FF3026E023692A4639463046C0470130F5D02368D7
:401AC0009B0710D5002504F1190907E001234A4639463046C0470130E7D00135E368039A9B1A9D42F2DBE068039B9842B8BF184605E00B7804F1420584F842308AE705B0D8
:401B0000BDE8F0838F1F0000A01F000010B5C9B202449042034605D01C7801308C42F8D1184610BD002010BD884210B501EB020301D8421E0BE09842FBD28118D21AD34251
:401B400004D013F8014D01F8014DF8E710BD994204D011F8014B02F8014FF8E710BD000038B50546002944D051F8043C0C1F002BB8BFE41800F0D4F81E4A1368114613B9C2
:401B80006360146030E0A3420DD92268A018834201BF18685B681218226063600C6023E0A24203D813465A68002AF9D118681918A1420BD12168014458188242196013D18E
:401BC00010685268014419605A600DE002D90C232B6009E021686018824201BF106852680918216062605C602846BDE8384000F098B838BD8481FF1F70B5CD1C25F00305EB
:401C000008350C2D38BF0C25002D064601DBA94202D90C23336046E000F082F8234B1C681A462146A1B10B685B1B0ED40B2B03D90B60CC18CD501EE08C420BBF63684B6831
:401C40001360636018BF0C4615E00C464968E9E7174C23681BB9304600F052F820602946304600F04DF8431C18D0C41C24F00304A0420DD12560304600F053F804F10B00F9
:401C8000231D20F00700C31A0ED05A42E25070BD211A304600F034F80130EBD10C233360304600F03EF8002070BD00BF8481FF1F8081FF1FF8B5074615460E4621B91146D7
:401CC000BDE8F840FFF798BF1AB9FFF749FF2846F8BD00F027F885420ED929463846FFF78BFF044650B131462A46FFF7EDFB31463846FFF735FF01E03046F8BD2046F8BD06
:401D000038B5064C0023054608462360FEF722FC431C02D1236803B12B6038BD9481FF1F7047704751F8040C0028BEBF091851F8043CC0180438704700000000434F4D200E
:401D4000506F7274204F70656E00000050696E20256420746F20474E440D0A0050696E2025643A202564206D560D0A000A4D61783A202564206D560D0A0000004D696E3A11
:401D8000202564206D560D0A000000004176673A202564206D560D0A0A0000000D510040005B00400D510040005B00400D510040005B00400D510040005B00402D510040D9
:401DC000005B00402D510040005B0040202040401010808010012002035B00402443004040000000305100404000F051004010000000014000100014014000080040014096
:401E0000000A004C014000020050014020000000605200404C03004806000000000000000000060000004079010000000800880000000000020000000800880000000000E7
:401E40000300000008008800000000000400000008008800000000000500000008008800000000000600000008008800000000000700000008008800000000000000000079
:401E80000000000000000000000000000100000000000000000000000000000002000000000000000000000000000000030000000000000000000000000000000400000018
:401EC00000000000000000000000000005000000000000000000000000000000060000000000000000000000000000000700000000000000000000000000000008000000C8
:401F0000000000000000000000000000090000000000000000000000000000000A0000000000000000000000000000000B0000000000000000000000000000000C00000077
:401F40000000000000000000000000000D0000000000000000000000000000000E0000000000000000000000000000000F0000000000000000000000000000004300232DA4
:401F8000302B2000686C4C006566674546470030313233343536373839414243444546003031323334353637383961626364656600000000F8B500BFF8BC08BC9E467047FF
:401FC0004D000000D1050000F8B500BFF8BC08BC9E46704729000000E81F0000C880FF1F8800000048000000000000009881FF1F01FF00000000E02EC05D0000180000005F
:4020000000366E01FF00000000000000000000000000000000000000000000000000000000000000000000007C1F0000000000000000000000000000000000000000000061
:4020400000000000000000000000000000000000000000000000000000000000000000000000000000000000E880FF1F0000000000000000000000000000000000000000DA
:402080000000000000000000000000000000000000000000000000000000000000000000000000000000000000000000000000000000000000000000000000000000000020
:4020C00000000000000000000000000000000000000000000000000000000000000000000000000000000000000000000000000000000000000000000000000000000000E0
:40210000000000000000000000000000000000000000000000000000000000000000000000000000000000000000000000000000000000000000000000000000000000009F
:40214000000000000000000000000000000000000000000000000000000000000000000000000000000000000000000000000000000000000000000000000000000000005F
:020000040003F7
:0200000480007A
:4000000003650040010B0140040C0140010D0140011501406F18014039190140621A0140481B0140044401400245014005460140024701400248014001490140024C01404C
:40004000114D014002500140880F8A728B38B44038023E0158045F011C40EC100410055306AC0704080C09030A710B440CDC0E2213081603181419531B0C1E2020092120B1
:4000800022D02345281029802A402D0A2F543140321F330F34E03580373039803A203B083F1140344102450B46C0470E481949FF4AFF4BFF4EF04F44500C5401580459042E
:4000C0005A045B045C115D115F0166C06A406B02820C8431860688C089018B068C2C8E0391029309948095179640983199179A0E9D10A213A4C0A904AA08AB01AC40AE807F
:40010000B00FB110B2C0B307B430B508B820BA02BE10C002C704C9FFCA07CBFFCC40CD20CEF0CF05D008D804D904DA04DC11DD01DF01E040E1A8E240E320004002800314D4
:4001400004400510071009100A140C800E200F0810A212481604170218441A101B0A1D101E2420302102222025082680279A2B082C882F02302232403304371238103D1074
:400180003E043F2040044518464048804F08520C540857105D105F8980088301C0EFC2E6C45FCAB4CCAFCE64D0E4D6F001440223043F0518080309080A400C330D3C0E0CE5
:4001C0000FC2101C122313E3140215C016801B041C1F1D101E20200821E72318240425FF280C29802C012D1C2E802FE1300F311F321034C03538362C37C03A823B023E14F3
:4002000056025712580459045B045C115D105F01820184018A028C0192029901A604AA04AE01B001B202B301B604B802BA20BE44BF04C054C102C203C406C6C0C70EC81888
:40024000C9FFCAFFCBFFCC62CDA0CEF0CF41D00CD418D804D904DA04DB04DC01DD11DF01E640E702E910EA30EB10ED10EE10EF120068024A031004420604071008040A1262
:400280000B400E4010821314152016101780184219851A021B101C081D401E401F24211023C92720280429812B20308031023228361038283A013B404502464047184E02FF
:4002C0004F20561459045F016540670868206A806B047094731488028B208E01921096809F04A010A102A230A422C0FFC21DC4EFCA0FCC2FCE0FD0E0D230D682D830EC10CE
:4003000010107C20C408DE0198109C2045089810B420D001E8029810A5082510C820B5109810A50810801B02761078107B0288808A108C809810B508C408C608DC01DE063C
:40034000E404E603EC0810021C02000080A0000040000000000000000000F000800050A0A000A00000000000000B0B00000000000000000000003000950018010000000094
:40038000000000000000000000000000000000000000000000000000000000000000000000000000000000000000000000000000000000000000000000000000000000003D
:4003C00000000000000000000000000000000000000000000000000000000000000000000000000000000000000000000000000000000000000000000000000000000000FD
:4004000000000000000000000000000000000000000000000000000000000000000000000000000000000000000000000000000000000000000000000000000000000000BC
:40044000000000000000000000000000000000000000000000000000000000000000000000000000000000000000000000000000000000000000000000000000000000007C
:0200000490006A
:0400000000004005B7
:0200000490105A
:04000000BC90ACAF55
:0200000490303A
:02000000A991C4
:0200000490402A
:4000000000000000000000000000000000000000000000000000000000000000000000000000000000000000000000000000000000000000000000000000000000000000C0
:400040000000000000000000000000000000000000000000000000000000000000000000000000000000000000000000000000000000000000000000000000000000000080
:400080000000000000000000000000000000000000000000000000000000000000000000000000000000000000000000000000000000000000000000000000000000000040
:4000C0000000000000000000000000000000000000000000000000000000000000000000000000000000000000000000000000000000000000000000000000000000000000
:0200000490501A
:0C00000000012E16106900012E21B9FA33
:00000001FF